:020000040800F2
:10000000F8400020C5850008AF850008B1850008CC
:10001000B3850008B5850008B7850008000000001A
:10002000000000000000000000000000B98500088A
:10003000BB85000800000000BD850008BF850008E2
:10004000E1850008E5850008E9850008ED850008E0
:10005000F1850008F5850008F9850008FD85000890
:100060000186000805860008098600080D8600083C
:100070001186000815860008198600081D860008EC
:100080002186000825860008298600082D8600089C
:100090003186000835860008398600083D8600084C
:1000A0004186000845860008498600084D860008FC
:1000B0005186000855860008598600085D860008AC
:1000C0006186000865860008698600086D8600085C
:1000D0007186000875860008798600087D8600080C
:1000E00081860008858600088986000800000000D7
:1000F0000000000000000000000000000000000000
:1001000000000000000000000000000000000000EF
:1001100000000000000000000000000000000000DF
:1001200000000000000000000000000000000000CF
:1001300000000000000000000000038000038000B9
:10014000038000038000038000038000038000031D
:10015000800003800001000001000000000000009A
:100160000003800003800000000000000000000089
:10017000000000000000000000000000000000007F
:1001800000000000000E70000E70000E70000420D1
:1001900000042000042000042000000000000000F3
:1001A000000000000000000000000000000000004F
:1001B000000000000000000000000000000000003F
:1001C0000000000000000000000006600006600063
:1001D0000660000660000660003FF8003FF8000679
:1001E00060000CC0003FF8003FF8000CC0000CC0DD
:1001F000000CC0000CC0000CC0000000000000009B
:1002000000000000000000000000000000000001ED
:10021000800001800007B0000FF000187000187017
:10022000001C00000F800007E00000F00018300004
:100230001C30001C70001FE0001BC000018000018A
:10024000800001800001800000000000000000002C
:10025000000000000000000000000780000FC00048
:100260001CE0001860001860001CE0000FF8000798
:10027000E0001FF0000738000618000618000738D5
:100280000003F00001E0000000000000000000009A
:10029000000000000000000000000000000000005E
:1002A000000000000000000003F00007F0000C60F8
:1002B000000C00000C00000600000700000F9C006E
:1002C0001DFC0018F0001870000FFC0007DC000097
:1002D000000000000000000000000000000000001E
:1002E000000000000000000000000000000380008B
:1002F00003800003800001000001000001000001F4
:1003000000000000000000000000000000000000ED
:1003100000000000000000000000000000000000DD
:1003200000000000000000000000000000000000CD
:10033000000000180000380000700000F00000E02D
:100340000000E00001C00001C00001C00001C000C9
:1003500001C00001C00000E00000E00000700000EB
:1003600070000038000018000000000000000000CD
:10037000000000000000000000001800001C000049
:100380000E00000E000007000007000003800003BD
:1003900080000380000380000380000380000700CA
:1003A000000700000F00000E00001C0000180000F5
:1003B000000000000000000000000000000000003D
:1003C00000000180000180000180001DB8001FF8BE
:1003D0000007E00003C00003C000066000066000E4
:1003E000000000000000000000000000000000000D
:1003F00000000000000000000000000000000000FD
:1004000000000000000000000000000000000000EC
:100410000180000180000180000180000180003F18
:10042000FC003FFC00018000018000018000018091
:10043000000180000000000000000000000000003B
:1004400000000000000000000000000000000000AC
:10045000000000000000000000000000000000009C
:10046000000000000000000000000000000000008C
:1004700000000000000000E00000C00001C000011A
:100480008000018000030000030000000000000065
:10049000000000000000000000000000000000005C
:1004A0000000000000000000000000000000001F2D
:1004B000F8001FF80000000000000000000000002D
:1004C000000000000000000000000000000000002C
:1004D000000000000000000000000000000000001C
:1004E000000000000000000000000000000000000C
:1004F00000000000000000000000000000000000FC
:1005000000000000000003C00003C00003C00000A2
:1005100000000000000000000000000000000000DB
:100520000000000000180000180000380000300033
:1005300000700000600000600000C00000C000010A
:100540008000018000030000030000060000060098
:10055000000E00000C00001C000018000018000035
:10056000000000000000000000000000000000008B
:10057000000003C00007E0000C30000C3000181829
:10058000001818001818001818001818001818007B
:100590001818000C30000C300007E00003C0000009
:1005A000000000000000000000000000000000004B
:1005B0000000000000000000000000800007800034
:1005C0001F80001D8000018000018000018000016B
:1005D0008000018000018000018000018000018016
:1005E000001FF8001FF800000000000000000000DD
:1005F00000000000000000000000000000000000FB
:10060000000007C0001FF00038300030180030181C
:100610000000180000300000600001C000038000EE
:100620000600000C00001800003FF8003FF8000032
:1006300000000000000000000000000000000000BA
:100640000000000000000000000003C0000FE000F8
:100650000C700000300000300000600003C0000398
:10066000E0000070000018000018000018001838A2
:10067000001FF0000FC0000000000000000000009C
:10068000000000000000000000000000000000006A
:10069000000000E00001E00001E0000360000660EF
:1006A000000660000C60000C600018600030600004
:1006B0003FF8003FF80000600003F80003F8000076
:1006C000000000000000000000000000000000002A
:1006D000000000000000000000001FF0001FF000FC
:1006E0001800001800001800001BC0001FF0001CBC
:1006F000300000180000180000180000180030300A
:10070000003FF0000FC000000000000000000000EB
:1007100000000000000000000000000000000000D9
:10072000000000F80003F8000700000E00000C00B5
:10073000001800001BC0001FF0001C30001818003B
:100740001818001818000C38000FF00003E0000023
:100750000000000000000000000000000000000099
:10076000000000000000000000001FF8001FF8005B
:100770001818001838000030000030000070000029
:10078000600000600000E00000C00000C00001C088
:100790000001800001800000000000000000000057
:1007A0000000000000000000000000000000000049
:1007B000000007E0000FF0001C380018180018189F
:1007C000000C300007E00007E0000C3000181800B3
:1007D0001818001818001C38000FF00007E000007F
:1007E0000000000000000000000000000000000009
:1007F0000000000000000000000007C0000FF00033
:100800001C30001818001818001818000C38000FB9
:10081000F80003D80000180000300000700000E06D
:10082000001FC0001F0000000000000000000000CA
:1008300000000000000000000000000000000000B8
:10084000000000000000000000000000000003C0E5
:100850000003C00003C00000000000000000000012
:1008600000000000000003C00003C00003C000003F
:100870000000000000000000000000000000000078
:100880000000000000000000000000000000000068
:1008900000000000000000F00000F00000F0000088
:1008A000000000000000000000000000E00001C0A7
:1008B0000001800001800003000002000000000031
:1008C0000000000000000000000000000000000028
:1008D0000000000000000000001C00003C0000F0D0
:1008E0000003C0000F00003C0000F000003C0000CE
:1008F0000F000003C00000F000003C00001C0000DE
:1009000000000000000000000000000000000000E7
:1009100000000000000000000000000000000000D7
:100920000000000000000000007FFC007FFC0000D1
:1009300000000000007FFC007FFC000000000000C1
:1009400000000000000000000000000000000000A7
:100950000000000000000000000000000000000097
:1009600000000000000000007000007800001E0081
:100970000007800001E000007800001E0000780001
:1009800001E0000780001E000078000070000000F9
:100990000000000000000000000000000000000057
:1009A0000000000000000000000000000007C00080
:1009B0000FE00018700018300018300000700000C0
:1009C000E00003C0000380000300000000000000FE
:1009D0000007000007000000000000000000000009
:1009E0000000000000000000000000000000000007
:1009F000000003E00007F0000E38000C1800187823
:100A00000018F80019D800199800199800199800D2
:100A100018F8001878001800000C00000E180007E5
:100A2000F80003E0000000000000000000000000EB
:100A3000000000000000000000000000001F800017
:100A40001FC00001C0000360000360000630000604
:100A500030000C30000FF8001FF800180C00300CAC
:100A600000FC7F00FC7F0000000000000000000090
:100A70000000000000000000000000000000000076
:100A800000000000007FE0007FF000183800181818
:100A9000001818001838001FF0001FF800181C007C
:100AA000180C00180C00180C007FF8007FF00000F4
:100AB0000000000000000000000000000000000036
:100AC0000000000000000000000000000003EC0037
:100AD0000FFC001C1C00180C00300C003000003013
:100AE0000000300000300000300000180C001C1C1A
:100AF000000FF80003F000000000000000000000FC
:100B000000000000000000000000000000000000E5
:100B100000000000007FC0007FF0001838001818A7
:100B200000180C00180C00180C00180C00180C0011
:100B3000180C001818001838007FF0007FE0000043
:100B400000000000000000000000000000000000A5
:100B5000000000000000000000000000007FF8001E
:100B60007FF8001818001818001998001980001F45
:100B700080001F80001980001998001818001818AC
:100B8000007FF8007FF80000000000000000000077
:100B90000000000000000000000000000000000055
:100BA00000000000003FFC003FFC000C0C000C0C9F
:100BB000000CCC000CC0000FC0000FC0000CC00027
:100BC0000CC0000C00000C00003FC0003FC0000043
:100BD0000000000000000000000000000000000015
:100BE0000000000000000000000000000003EC0016
:100BF0000FFC001C1C00180C00300C0030000030F2
:100C0000000030FE0030FE00300C00380C001C1CD0
:100C1000000FFC0003F000000000000000000000D6
:100C200000000000000000000000000000000000C4
:100C300000000000007E7E007E7E0018180018185C
:100C4000001818001818001FF8001FF800181800E6
:100C50001818001818001818007E7E007E7E00000C
:100C60000000000000000000000000000000000084
:100C7000000000000000000000000000001FF8005D
:100C80001FF8000180000180000180000180000148
:100C9000800001800001800001800001800001804F
:100CA000001FF8001FF80000000000000000000016
:100CB0000000000000000000000000000000000034
:100CC000000000000007FE0007FE000030000030BA
:100CD00000003000003000003000303000303000C4
:100CE0003030003030003060003FE0000F80000006
:100CF00000000000000000000000000000000000F4
:100D0000000000000000000000000000007F3E0026
:100D10007F3E0018300018600018C0001980001BCA
:100D200080001FC0001CE000187000183000183848
:100D3000007F1F007F1F0000000000000000000077
:100D400000000000000000000000000000000000A3
:100D500000000000007F80007F80000C00000C007D
:100D6000000C00000C00000C00000C00000C0C003B
:100D70000C0C000C0C000C0C007FFC007FFC000035
:100D80000000000000000000000000000000000063
:100D900000000000000000000000000000F00F0054
:100DA000F81F00381C003C3C003C3C00366C003610
:100DB0006C0033CC0033CC00318C00300C00300C94
:100DC00000FE7F00FE7F0000000000000000000029
:100DD0000000000000000000000000000000000013
:100DE000000000000078FE0078FE001C18001E18AD
:100DF000001F18001B18001B980019D80018D800F5
:100E000018F8001878001838007F18007F180000C4
:100E100000000000000000000000000000000000D2
:100E20000000000000000000000000000003C000FF
:100E30000FF0001C3800181800381C00300C00306F
:100E40000C00300C00300C00381C001818001C3846
:100E5000000FF00003C000000000000000000000D0
:100E60000000000000000000000000000000000082
:100E700000000000003FF0003FF8000C1C000C0CCC
:100E8000000C0C000C0C000C18000FF8000FE00018
:100E90000C00000C00000C00003FC0003FC0000030
:100EA0000000000000000000000000000000000042
:100EB0000000000000000000000000000003C0006F
:100EC0000FF0001C3800181800381C00300C0030DF
:100ED0000C00300C00300C00381C001818001C38B6
:100EE000000FF00007C00007CC000FFC000C38001A
:100EF00000000000000000000000000000000000F2
:100F000000000000007FE0007FF000183800181893
:100F1000001818001838001FF0001FC00018E0006B
:100F20001870001830001838007F1E007F0E000077
:100F300000000000000000000000000000000000B1
:100F40000000000000000000000000000007D800C2
:100F50000FF8001C38001818001818001E00000FA9
:100F6000C00003F0000078001818001818001C38A2
:100F7000001FF0001BE00000000000000000000067
:100F80000000000000000000000000000000000061
:100F900000000000003FFC003FFC00318C00318C61
:100FA00000318C00318C0001800001800001800044
:100FB0000180000180000180000FF0000FF00000B0
:100FC0000000000000000000000000000000000021
:100FD000000000000000000000000000007E7E0015
:100FE0007E7E00181800181800181800181800182D
:100FF00018001818001818001818001818000C30DD
:10100000000FF00003C0000000000000000000001E
:1010100000000000000000000000000000000000D0
:1010200000000000007F7F007F7F00180C000C187C
:10103000000C18000C180006300006300003600099
:1010400003600003600001C00001C00000800000D8
:101050000000000000000000000000000000000090
:1010600000000000000000000000000000FE3F80C3
:10107000FE3F8030060030060030860019CC001993
:10108000CC001B6C001B6C001E7C000E38000E3860
:10109000000C18000C180000000000000000000008
:1010A0000000000000000000000000000000000040
:1010B00000000000007E7E007E7E001818000C30CC
:1010C0000006600003C00001800001800003C00032
:1010D0000660000C30001818007E7E007E7E000046
:1010E0000000000000000000000000000000000000
:1010F000000000000000000000000000007C7E00F6
:101100007C7E001818000C300006600006600003AA
:10111000C00001800001800001800001800001808A
:10112000000FF0000FF000000000000000000000C1
:1011300000000000000000000000000000000000AF
:1011400000000000001FF8001FF8001818001830F9
:101150000018600018C0000180000300000618009D
:101160000C18001818003018003FF8003FF8000075
:10117000000000000000000000000000000000006F
:101180000000000000000000000001F00001F0007D
:1011900001800001800001800001800001800001C9
:1011A000800001800001800001800001800001803A
:1011B0000001800001800001800001F00001F000CA
:1011C00000000000000000000000000018000018EF
:1011D00000001C00000C00000E00000600000600CD
:1011E0000003000003000001800001800000C00037
:1011F00000C00000600000600000700000300000CF
:101200003800001800001800000000000000000076
:10121000000000000000000000000F80000F8000B0
:101220000180000180000180000180000180000138
:1012300080000180000180000180000180000180A9
:10124000000180000180000180000F80000F8000FD
:10125000000000000000000000000000000000008E
:10126000800001C00003E0000770000630000C1889
:1012700000180C0010040000000000000000000036
:10128000000000000000000000000000000000005E
:10129000000000000000000000000000000000004E
:1012A000000000000000000000000000000000003E
:1012B000000000000000000000000000000000002E
:1012C000000000000000000000000000000000001E
:1012D000000000000000000000000000000000000E
:1012E000000000000000FFFF00FFFF0000000003FF
:1012F000000003800000E00000600000000000002B
:1013000000000000000000000000000000000000DD
:1013100000000000000000000000000000000000CD
:1013200000000000000000000000000000000000BD
:1013300000000000000000000000000000000000AD
:101340000000000000000FC0001FE000003000009F
:10135000300007F0001FF0003830003030003070EF
:10136000001FFC000FBC0000000000000000000097
:10137000000000000000000000000000000000006D
:1013800000007800007800001800001800001BE042
:10139000001FF8001C1800180C00180C00180C0096
:1013A000180C00180C001C18007FF8007BE00000EF
:1013B000000000000000000000000000000000002D
:1013C000000000000000000000000000000000001D
:1013D00000000000000003EC000FFC001C1C0038A3
:1013E0000C00300C00300000300000380C001C1CD9
:1013F000000FF80003F000000000000000000000F3
:1014000000000000000000000000000000000000DC
:10141000000000780000780000180000180007D8CD
:10142000001FF8001838003018003018003018007D
:101430003018003018001838001FFE0007DE0000CA
:10144000000000000000000000000000000000009C
:10145000000000000000000000000000000000008C
:1014600000000000000007E0001FF800181800301E
:101470000C003FFC003FFC00300000300000180C66
:10148000001FFC0007F0000000000000000000004A
:10149000000000000000000000000000000000004C
:1014A000000001FC0003FC000600000600003FF8FD
:1014B000003FF800060000060000060000060000DD
:1014C0000600000600000600003FF0003FF00000AC
:1014D000000000000000000000000000000000000C
:1014E00000000000000000000000000000000000FC
:1014F00000000000000007DE001FFE00183800306A
:101500001800301800301800301800301800183853
:10151000001FF80007D8000018000018000038006D
:101520000FF0000FC00000000000000000000000ED
:1015300000007800007800001800001800001BE090
:10154000001FF0001C3800181800181800181800A8
:101550001818001818001818007E7E007E7E000003
:10156000000000000000000000000000000000007B
:101570000000000000000000000001800001800069
:101580000000000000001F80001F8000018000019B
:101590008000018000018000018000018000018046
:1015A000003FFC003FFC00000000000000000000C5
:1015B000000000000000000000000000000000002B
:1015C000000000C00000C0000000000000001FF08C
:1015D000001FF0000030000030000030000030003C
:1015E000003000003000003000003000003000000B
:1015F00030000030000070001FE0001F800000007D
:10160000000000000000000000003C00003C000062
:101610000C00000C00000CF8000CF8000CC0000DD1
:1016200080000F80000F00000F80000DC0000CE054
:10163000003C7C003C7C000000000000000000003A
:10164000000000000000000000000000000000009A
:1016500000001F80001F80000180000180000180C9
:1016600000018000018000018000018000018000F5
:101670000180000180000180003FFC003FFC000071
:10168000000000000000000000000000000000005A
:10169000000000000000000000000000000000004A
:1016A000000000000000F77800FFFC0039CC00319A
:1016B0008C00318C00318C00318C00318C00318CED
:1016C00000FDEF00FDEF0000000000000000000042
:1016D000000000000000000000000000000000000A
:1016E00000000000000000000000000000007BE09F
:1016F000007FF0001C380018180018180018180097
:101700001818001818001818007E7E007E7E000051
:1017100000000000000000000000000000000000C9
:1017200000000000000000000000000000000000B9
:1017300000000000000003C0000FF0001C3800385B
:101740001C00300C00300C00300C00381C001C3821
:10175000000FF00003C000000000000000000000C7
:101760000000000000000000000000000000000079
:1017700000000000000000000000000000007BE00E
:10178000007FF8001C1800180C00180C00180C0042
:10179000180C00180C001C18001FF8001BE00018A3
:1017A00000001800001800007F00007F000000000B
:1017B0000000000000000000000000000000000029
:1017C00000000000000007DE001FFE001838003097
:1017D0001800301800301800301800301800183881
:1017E000001FF80007D800001800001800001800BB
:1017F00000FE0000FE0000000000000000000000ED
:1018000000000000000000000000000000003E7822
:10181000003EFC0007CC00070000060000060000A8
:101820000600000600000600003FF0003FF0000048
:1018300000000000000000000000000000000000A8
:101840000000000000000000000000000000000098
:1018500000000000000007F8000FF800181800183A
:1018600018001F80000FF00000F80018180018384A
:10187000001FF0001FE0000000000000000000005A
:101880000000000000000000000000000000000058
:1018900000000C00000C00000C00000C00003FF0E9
:1018A000003FF0000C00000C00000C00000C0000D9
:1018B0000C00000C00000C1C0007FC0003F00000F2
:1018C0000000000000000000000000000000000018
:1018D0000000000000000000000000000000000008
:1018E00000000000000078780078780018180018D0
:1018F00018001818001818001818001818001838C0
:10190000000FFE0007DE00000000000000000000E5
:1019100000000000000000000000000000000000C7
:1019200000000000000000000000000000007C3EFD
:10193000007C3E001818001818000C30000C300015
:1019400006600006600007E00003C00003C000005E
:101950000000000000000000000000000000000087
:101960000000000000000000000000000000000077
:10197000000000000000783C00783C003118003383
:1019800098003398001AB0001EF0001EF0001C6092
:10199000000C60000C60000000000000000000006F
:1019A0000000000000000000000000000000000037
:1019B00000000000000000000000000000003E7C6D
:1019C000003E7C000C300006600003C00001800077
:1019D00003C0000660000C30003E7C003E7C00002E
:1019E00000000000000000000000000000000000F7
:1019F00000000000000000000000000000000000E7
:101A00000000000000007E1F007E1F00180C000C6C
:101A100018000C180006300006300003600003E0D8
:101A20000001C00000C00001800001800003000030
:101A30003FC0003FC00000000000000000000000A8
:101A400000000000000000000000000000001FF87F
:101A5000001FF80018300018600000C0000180006E
:101A60000300000618000C18001FF8001FF8000003
:101A70000000000000000000000000000000000066
:101A80000000000000000000000000E00001E00095
:101A900001800001800001800001800001800001C0
:101AA00080000380000700000380000180000180A7
:101AB0000001800001800001800001E00000E000E2
:101AC0000000000000000000000000000000000016
:101AD0000000018000018000018000018000018081
:101AE0000001800001800001800001800001800071
:101AF0000180000180000180000180000180000160
:101B00008000018000018000000000000000000053
:101B10000000000000000000000007000007800037
:101B2000018000018000018000018000018000012F
:101B3000800001C00000E00001C0000180000180C1
:101B40000001800001800001800007800007000084
:101B50000000000000000000000000000000000085
:101B60000000000000000000000000000000000075
:101B7000000000000E00001F18003BB80031F0000C
:101B800000E0000000000000000000000000000075
:101B90000000000000000000000000000000000045
:101BA0000000000000000000000000000000000035
:101BB000001010101010000010000000006C4848C9
:101BC0000000000000000000001414287C287C287D
:101BD000505000000010384040384870101000008D
:101BE000002050200C7008140800000000000018AD
:101BF0002020544834000000001010101000000095
:101C00000000000000080810101010101008080054
:101C100000202010101010101020200000107C1048
:101C200028280000000000000000101010FE101016
:101C3000100000000000000000000018103020001C
:101C400000000000007C0000000000000000000018
:101C500000000030300000000004040808101020CC
:101C6000204000000038444444444444380000000C
:101C700000301010101010107C00000000384404D8
:101C8000081020447C000000003844041804044478
:101C900038000000000C141424447E040E000000E0
:101CA000003C20203804044438000000001C204080
:101CB0007844444438000000007C440408080810BC
:101CC0001000000000384444384444443800000008
:101CD00000384444443C0408700000000000003018
:101CE000300000303000000000000018180000181C
:101CF0003020000000000C10608060100C0000001C
:101D0000000000007C007C00000000000000C020FB
:101D100018041820C0000000000018240408100057
:101D2000300000003844444C54544C4044380000C7
:101D30000030102828287C44EE00000000F84444BD
:101D400078444444F8000000003C44404040404493
:101D50003800000000F0484444444448F0000000CB
:101D600000FC445070504044FC000000007E2228DB
:101D70003828202070000000003C4440404E44447D
:101D80003800000000EE44447C444444EE0000006F
:101D9000007C1010101010107C000000003C08089F
:101DA000084848483000000000EE4448507048445D
:101DB000E600000000702020202024247C00000089
:101DC00000EE6C6C54544444EE00000000EE646479
:101DD0005454544CEC0000000038444444444444FF
:101DE00038000000007824242438202070000000EF
:101DF0000038444444444444381C000000F844443F
:101E000044784844E200000000344C403804046444
:101E10005800000000FE9210101010103800000052
:101E200000EE4444444444443800000000EE44447E
:101E3000282828101000000000EE44445454545444
:101E40002800000000C6442810102844C6000000E6
:101E500000EE44282810101038000000007C4408D0
:101E6000101020447C00000000382020202020207A
:101E70002020380000402020201010080808000012
:101E8000003808080808080808083800001010285A
:101E900044000000000000000000000000000000FE
:101EA000000000FE0010080000000000000000001C
:101EB00000000038443C44443E00000000C040584C
:101EC00064444444F80000000000003C44404044A6
:101ED00038000000000C04344C4444443E00000030
:101EE00000000038447C40403C000000001C207C86
:101EF000202020207C000000000000364C44444498
:101F00003C04380000C0405864444444EE000000E3
:101F100000100070101010107C00000000100078FD
:101F2000080808080808700000C0405C4870504865
:101F3000DC00000000301010101010107C000000B9
:101F4000000000E854545454FE000000000000D883
:101F500064444444EE00000000000038444444441B
:101F600038000000000000D8644444447840E00099
:101F7000000000364C4444443C040E000000006C59
:101F8000302020207C0000000000003C4438044445
:101F9000780000000000207C202020221C0000008F
:101FA000000000CC4444444C36000000000000EE29
:101FB0004444282810000000000000EE445454540B
:101FC00028000000000000CC48303048CC00000061
:101FD000000000EE44242818101078000000007C57
:101FE000481020447C000000000810101010201041
:101FF0001010080000101010101010101010000029
:102000000020101010100810101020000000000018
:102010000024580000000000000000000000000044
:102020002020202000200000505000000000000070
:102030002850F850F850A000203060301060200088
:102040002020186010100000003820605078000038
:102050002020200000000000102020202020100060
:102060004020202020204000207020500000000050
:10207000002020F820200000000000001020200098
:1020800000000070000000000000000000200000C0
:102090001020202040408000205050505020000050
:1020A0006020202020F800002050202040700000F8
:1020B00020501020106000001030507810380000C0
:1020C00070406010502000003040605050600000B0
:1020D0007050102020200000205020505020000080
:1020E0003050503010600000000020000020000040
:1020F0000000100010200000001020C02010000080
:102100000070007000000000004020182040000017
:102110002050102000200000304848584840380027
:102120006020507088D80000F048704848F00000E7
:102130007050404040300000F048484848F00000EF
:10214000F848604048F80000F848604040E000006F
:102150007040405850300000E848784848E8000097
:1021600070202020207000003810105050200000F7
:10217000D850607050D80000E040404048F800005F
:10218000D8D8D8A888D80000D868685858E800007F
:102190003048484848300000F048487040E00000AF
:1021A0003048484848301800F048487048E8000077
:1021B0007050201050700000F8A8202020700000FF
:1021C000D848484848300000D8884850503000006F
:1021D000D888A8A8A8500000D850202050D80000C7
:1021E000D8885020207000007848102048780000DF
:1021F000302020202020300080404020202010006F
:1022000060202020202060002020500000000000DE
:1022100000000000000000F8201000000000000096
:102220000000301070780000C040704848F0000096
:10223000000070404070000018083848483800001E
:1022400000007070403000001020702020700000EE
:102250000000384848380830C040704848E800005E
:1022600020006020207000002000701010101070FE
:10227000C040587050D8000060202020207000001E
:102280000000D0A8A8A800000000F04848C800003E
:1022900000003048483000000000F048487040E03E
:1022A00000003848483808180000782020700000E6
:1022B00000003020106000000040F0404830000076
:1022C0000000D848483800000000C84830300000FE
:1022D0000000D8A8A8500000000048303048000096
:1022E0000000D8505020206000007850287800006E
:1022F00010202060202010002020202020202000FE
:102300004020203020204000000000285000000025
:1023100003E011F8013B00F8013B13465A1E002B65
:10232000F7D17047130003D00A46194601F00CBBE1
:102330007047F0B5002200230C24DFF8405B04FB5B
:1023400003F677598FB1D0F800C267450ED17619E0
:1023500000F50077D6F804C0D7F808E0F44502BFCE
:102360003689FF88BE4201D103E001225B1C0C2BA1
:10237000E5D30C2B04D162B902290AD01220F0BD9A
:1023800029B904FB03504089B0F5807F01D11020AA
:10239000F0BD0020F0BDF0B5D0F80062DFF8DC4AF7
:1023A00000220C2300F5007503FB02F73859B042F8
:1023B00001BF3F197868D5F808E0704503D13F891F
:1023C000E888874202D0521C0C2AEDD30C2A13D184
:1023D000002203FB0240006810B1521C0C2AF8D303
:1023E0000C2A0ED003FB02F006510019AE684660BD
:1023F000ED8805810025458103FB0240438929B111
:102400000BB10020F0BD4FF4807100E0591C4181F8
:10241000501CF0BD401E0C2815D20C214843DFF89B
:102420005C1A42185389B3F5807F18BF002B02D184
:102430000023538103E05B1E53819BB20BB9002242
:102440004250002070470220704710B50021DFF88D
:102450002C2A0C234B439C58844204BF00249C50DC
:10246000491C0C29F5D310BDF8B5044604F201252A
:10247000E87800B394F8010204F5067701237E6939
:10248000324601F09FF808B10120F2BDE870B8684B
:10249000D4F81812301A88420DD2AD7809E0D4F879
:1024A0001802861994F801020123324601F08AF8D5
:1024B0006D1E022DF3D20020F2BD38B504460D4644
:1024C000D4F82C0285420FD02046FFF7CDFF38B953
:1024D00094F8010201232A46214601F080FA08B14E
:1024E000012032BDC4F82C52002032BD38B504465C
:1024F000FFF7BAFF05004FD194F80002032804BF8C
:1025000094F8050201283FD101F0EAF901F0F5F94C
:1025100021465220207060706120A07001F0F5F912
:10252000D4F8100284F8E801D4F810020004000E78
:1025300084F8E901D4F81002000C84F8EA01D4F818
:102540001002000E84F8EB01D4F80C0284F8EC01C0
:10255000D4F80C020004000E84F8ED01D4F80C024B
:10256000000C84F8EE01D4F80C02000E84F8EF01A0
:10257000D4F81C02421CC4F82C2294F8010201F089
:1025800035FA002084F80502002294F801020021A7
:1025900001F03CFA00B10125284632BDD0F81422E2
:1025A000891E921E914201D30020704790F80222AA
:1025B000D0F8280202FB010070472DE9F0410D46DA
:1025C0008046022D4FD308F50076706985424AD2C5
:1025D00098F80002012804D045D303282CD01CD33E
:1025E00041E0306A05EB550400F043F800283CD187
:1025F000E005C00D641C10F80870306A00F039F86E
:1026000098BBE005C00D10F8080047EA0027E8076E
:102610005ABF3805000D380929E0306A00EB152152
:1026200000F09BF808BB6800C00508EBD05041786B
:10263000007840EA01201AE0306A00EBD51100F082
:102640008CF890B9A800C00508EBD0508278C1780A
:10265000120442EA01614278007841EA022108430B
:102660000001000903E0012001E04FF0FF30BDE868
:10267000F08100EB542140461FE72DE9F0410C4664
:1026800080461546022C04D308F500767069844212
:1026900001D302205DE098F80002012804D055D350
:1026A00003283BD02BD351E0306A04EB540700F0F1
:1026B00052F800284BD1F80508EBD05114F0010472
:1026C0001DBF087800F00F0040EA0510284608708A
:1026D0007F1C01203071306A00F03DF8002836D1AF
:1026E000F90508EBD1510CB12A0906E00A782B0A4A
:1026F00002F0F00203F00F031A430A7027E0306A79
:1027000000EB142100F029F808BB6100C90508EBB3
:10271000D1510D702D042A0E4A7018E0306A00EB7A
:10272000D41100F01AF890B9A100C90508EBD151F5
:10273000CA78120602F0704215432A040D70120E78
:102740004A702A0C8A702A0ECA7000E00220012109
:102750003171BDE8F08100EB57214046ADE62DE92F
:10276000F0410C468046022C0DD308F504756868CC
:10277000844208D2002721464046FFF71EFF06008C
:1027800021D0012E01D102271DE016F1010F01D148
:10279000012718E0002221464046FFF76EFF0700A0
:1027A00011D1D8F8100210F1010F08D0401CC8F860
:1027B000100298F8050240F0010088F8050234463E
:1027C00068688442D7D33846BDE8F0812DE9F041EE
:1027D00080460E0008F5037507D1D8F80C4214B1F5
:1027E000A86884420ED301240CE0FFF7E6FE02281D
:1027F00038BF01203FD310F1010F3CD0A9688842B7
:1028000039D334462746A8687F1C874202D3022763
:10281000022C28D339464046FFF7CFFEE0B96FF0CF
:10282000704239464046FFF728FF28B92EB13A4694
:1028300031464046FFF721FFB8B9C8F80C72686806
:1028400010F1010F16D0401E686098F8050240F0A4
:10285000010088F805020DE010F1010F18BF0128F2
:1028600009D0A742CFD1002005E001280CBF4FF0CE
:10287000FF3701273846BDE8F081D0F82422D0F890
:10288000000290F80202490A121DB1FBF0F001E0CB
:10289000401A121D52F8041B09B9002070478842E3
:1028A000F6D21168081870472DE9F041804608F506
:1028B00000760D46F580B768012F30D0D8F80002B9
:1028C00000F500714A69974229D227B990F80002B1
:1028D000032801D14F6A27B9088985421FD2486A67
:1028E0001BE08878040100E02D1BD8F80002A54207
:1028F000394610D3FFF761FE074617F1010F01D1EA
:10290000012019E0022F0AD3D8F80002D0F81402EF
:102910008742E9D303E0FFF741FEF76008B90220E0
:102920000AE000EB1510306105F00F00D8F8001236
:1029300001EB401070610020BDE8F0812DE9F0410D
:10294000804608F500750C46E888461C30041CBF1C
:102950002869002822D016F00F0F68D1401C28618A
:10296000E968D8F8000221B9B0F8080286425ED3BF
:1029700014E090F80222521E12EA161F57D1FFF7F8
:102980001CFE0746022F14D317F1010F43D0D8F8CD
:102990000002D0F814128F4244D30CB904204FE047
:1029A000E968FFF713FF070008BF072048D0012F91
:1029B00001D1022044E017F1010F2CD0D8F8000219
:1029C000FFF752FD38BBD8F800024FF4007200F058
:1029D000B3F8D8F800023946FFF7E0FDD8F8001246
:1029E000C1F82C02002407E0D8F80002D0F82C121D
:1029F000491CC0F82C12641CD8F8000290F802128E
:102A00008C420AD2012180F80412D8F80002FFF7A4
:102A10002BFD0028E8D0012012E0D0F82C12091B71
:102A2000C0F82C12EF60394600F0D9FE2861EE8024
:102A300006F00F00D8F8001201EB4010686100208A
:102A4000BDE8F081CA7E8B7E90F8000243EA022244
:102A5000032805D1487D097D41EA002042EA004271
:102A60001046704781760A04120EC276090C017571
:102A7000090A4175704770B505460E46042005F5F4
:102A800000742169F9B1D5F80002FFF716FDD0B93D
:102A900061690A780AB9042016E0C97A01F03F0199
:102AA000E52A1CBF2E2A0F2907D021F02001082972
:102AB0000CBF01210021B14208D000212846FFF7B8
:102AC0003DFF0028DDD008B10021216170BDF8B5BF
:102AD00004460021FFF7E8FE050004F5007613D157
:102AE000002700F06AFD05000ED170690078E52826
:102AF0001CBF0028002702D17F1C012F07D0012115
:102B000000F064F90500ECD0042D08BF072585B955
:102B100000F053FD05000CD1706900F00CF8B169AC
:102B200070690B22FFF7F4FBD4F80012012081F842
:102B300004022846F2BD20220021FFF7F3BB30B586
:102B4000D0F8103201F209024BB3D0F8140200237E
:102B50001C5C5B1C202C09D0052C08BFE524092B2C
:102B600004BF2E2502F8015B02F8014B0B2BEFD3BB
:102B7000C37A0B72847FC37F240444EA0363447FD7
:102B800043EA0423047F23430B60047E437E44EA2C
:102B900003238B80C37D807D40EA0320C880002012
:102BA000107030BD2DE9F8430C46256800E06D1C1F
:102BB00029782F2918BF5C29F9D0D0F818620B2288
:102BC00020213046FFF7AEFB00200022804608217E
:102BD0000FF2C40C0FF2D00E04E0082941D10820F6
:102BE0000B213A4618F80530970008F10108FFB2AA
:102BF000212B03DB2F2B18BF5C2B06D1454425600E
:102C0000212BB4BF042300232AE02E2BE5D08842D9
:102C100027D2802B04DB734442F0030213F8803C7C
:102C2000E14601E009F1010999F80070002F18BF91
:102C30009F42F7D1002F14D1A3F141071A2F03D2DD
:102C400042F00202D2B208E0A3F161071A2F04D2C7
:102C500042F00102203BD2B2DBB28355401CC1E7F7
:102C600008B9062015E03078E52804BF052030704B
:102C7000082908BF3A4602F00300012808BF43F0C4
:102C8000100302F00C00042808BF43F00803F3729D
:102C90000020BDE8F2830000222A2B2C3A3B3C3D69
:102CA0003E3F5B5D7C7F00008081828384858687D8
:102CB00088898A8B8C8D8E8F90919293949596971C
:102CC0009899AD9B8C9DAE9FA021A2A3A4A5A6A779
:102CD000A8A9AAABACADAEAFB0B1B2B3B4B5B6B7FC
:102CE000B8B9BABBBCBDBEBFC0C1C2C3C4C5C6C7EC
:102CF000C8C9CACBCCCDCECFD0D1D2D3D4D5D6D7DC
:102D0000D8D9DADBDCDDDEDFC0C1C2C3C4C5C6C7CB
:102D1000C8C9CACBCCCDCECFD0D1D2D3D4D5D6F79B
:102D2000D8D9DADBDCDDDE9FF2B5044608782F283F
:102D300012BF5C28481C009004F500750020A860B4
:102D400000980078202809D200F09EFD00216961DA
:102D5000F2BDD4F80002FFF775FEA86000A9204676
:102D6000FFF720FF00282FD100F08EFDE0B9296980
:102D700000F024FCC0B969690A780AB9042013E09C
:102D8000CA7A12070CD4AB690B22002617467A1EAA
:102D90002FB111F8016B13F8017BF61BF6D01EB1B1
:102DA00000F013F80028E2D0A969C97A01F0040103
:102DB00020B1042808BF002906D104E021B96969BF
:102DC000C87AC006C5D40520F2BD00212046B5E56D
:102DD00010B502684FF0FF31BAB1134600E05B1C3A
:102DE0001C78212C01D33A2CF9D13A2C0CD112F8B1
:102DF000014B303C0A2C08D29A4208BF002C04D167
:102E00005A1C0021026000E00021084610BD38B5C0
:102E1000044604F2FE150020A8714FF0FF30C4F8FC
:102E20002C022046FFF749FB08B1032032BD687829
:102E300094F8FE1141EA00204AF65521884201D05B
:102E4000022032BD04F23601DFF84C054B788A7857
:102E50001B0243EA024294F836301A43824208D0F9
:102E60008A7F4B7F097F1B0243EA02421143814262
:102E700001D1002032BD012032BD00009437002076
:102E80002DE9F043054685B0002028601446084629
:102E9000FFF79EFF070048BF0B2006D4DFF8FC8435
:102EA00008EB870046680EB90C2060E12E6096F8AA
:102EB000000250B196F8010200F08BFDC10704D466
:102EC000002C01D0400710D450E1002086F8000209
:102ED00086F8017296F8010200F06EFDC10748BF46
:102EE000032003D41CB1400701D50A203FE100278D
:102EF00000213046FFF78BFF0446012C29D100202A
:102F000000AD06EB001101F2BE110A7952B18B7AC5
:102F1000CA7A1B0443EA02624B7A097A42EA032224
:102F2000114300E0002145F82010401C0428E8D39C
:102F3000B94655F8297027B139463046FFF767FF83
:102F400000E00220040004D009F10109B9F1040FE6
:102F5000EFD3032C08BF0120C8D0002C01BF307B69
:102F6000F17A41EA0020B0F5007F1AD1F07DB17D01
:102F700051EA00200DD196F8261096F82700090492
:102F800041EA006096F8251040EA012096F82410E6
:102F90000843C6F81802317C86F80312012918BFCD
:102FA000022976D14843717B86F80212002970D03D
:102FB0004A1E11426DD1B27C737C43EA02220F2378
:102FC000A6F808221A4264D1337DF47C54EA032423
:102FD0000DD196F8224096F82330240444EA036386
:102FE00096F8214043EA042396F820401C43F37BE3
:102FF000B57B55EA03234CD0C51805EB1215AC423E
:1030000047D3641BB4FBF1F1002942D0012440F600
:10301000F67E714528BF02244FF6F67E714528BF23
:103020000324891CC6F81412C6F81C72D919C6F8F4
:103030002012E919C6F82812032C12D14ABB96F8BF
:103040002E1096F82F00090441EA006096F82D1022
:1030500040EA012096F82C100843D6F81412890093
:103060000EE0B2B1D6F820124018D6F81412022C95
:103070000FBF490001EB410201F0010101EB5201D8
:10308000C6F8240201F2FF11D6F81802B0EB512F56
:1030900001D20D206BE04FF0FF30C6F81002C6F8E9
:1030A0000C02802086F80502032C01BF96F831003F
:1030B00096F8301041EA002001284BD1791C3046A7
:1030C000FFF7FBF9002845D186F8050296F8FE11B6
:1030D00096F8FF0141EA00204AF65521884239D18D
:1030E000B178F07800F046F8717840EA0120317844
:1030F0000843AB4988422DD196F8E61196F8E701CE
:1031000000F038F896F8E51140EA012096F8E4114D
:103110000843A44988421DD196F8EA1196F8EB01BC
:1031200000F028F896F8E91140EA012096F8E81135
:103130000843C6F8100296F8EE1196F8EF0100F079
:1031400019F896F8ED1140EA012096F8EC110843C1
:10315000C6F80C0286F80042B8F80000401CA8F837
:103160000000A6F806023046FFF76FF9002005B010
:10317000BDE8F083090441EA0060704780B500288B
:103180001CBFD0F80012002909D091F8002232B1FA
:1031900001F50071B0F80402CA88824201D009200A
:1031A00002BD487800F015FCC00701D5032002BD20
:1031B000002002BD73B582B01446009100A8FFF74D
:1031C00007FE002848BF0B201FD4744901EB80057F
:1031D0006E682EB13046FFF738F9002086F80002FD
:1031E000029808B9686009E00020029981F800029D
:1031F00002986860029808B1012C01D0002004E018
:10320000002203A902A8FFF73BFE04B070BD2DE920
:10321000F243ADF50C7D5FEA000808BF092000F01D
:10322000B6800020C8F8000202F01F0606F0FE0279
:1032300000F052FB040060D100F058FB6F690400FD
:103240000AD10FB9062407E016F0FE0118BF0121CC
:1032500003A8FFF76EF804461C2006426CD0002C31
:1032600062D0042C10D100204F490C2202FB001226
:10327000126812B1401C0C28F7D30C280EBF122084
:1032800003A8FFF724FC04466F6946F008069CBBC0
:10329000300737D500F0C6FB01460004B973000EB5
:1032A000F873080C3874080E787439460020F872E8
:1032B00038777877B877F8778398FFF7C3FB81463C
:1032C00000213846FFF7CEFB8399012081F80402E4
:1032D000B9F1000F12D08398D0F82C524946FFF76D
:1032E0003EFA040008D18398A9F10101C0F80C123C
:1032F0002946FFF7E2F80446002C47D1300748BFC3
:1033000046F020068398D0F82C0208F5007516F0D8
:10331000FE01E8612F6218BF012103A8FFF73BF807
:10332000A862B0B9022431E01121F87A08420ED126
:103330007007ADD5082429E0002CDDD1F87AC1064C
:1033400048BF042422D4B107D8D5C007D6D5072456
:103350001CE0AE710020E8713946839E3046FFF7CD
:1033600071FB2861B97FF87F090441EA0060797F29
:1033700040EA0120397F0843E8600020A860A86186
:103380006862C8F80062B6F80602A88020460DF50B
:103390000D7DBDE8F08300004641540084380020D4
:1033A0005252614172724161943700202DE9F84F09
:1033B00081461F4600203860924688464846FFF7FF
:1033C000DDFE002802BF09F50074E079002840F016
:1033D0008F80A079C00758BF072040F18980E0683E
:1033E000A168401A504517D8824615E0A66100F042
:1033F00081F855468A4588BF0D4600EB09012A46EB
:103400004046FEF785FFA0682818A060A8443868E9
:1034100028183860AAEB050ABAF1000F67D0A16836
:10342000C805E4D1D9F8000290F802325B1E03EA25
:103430005122D5B28DB909B9206908E0626A1AB182
:103440004846FFF71AFA02E06169FFF7B6F802286A
:1034500006D310F1010F47D0606100F051F808B9B0
:10346000022042E02E185FEA5A2B23D0D9F800023E
:1034700000F201210BEB05024978914238BFA1EB24
:10348000050B90F801025B463246414600F0A7FA70
:1034900050BBA07940060AD5A069801B584506D2CA
:1034A0004FF40072494608EB4020FEF731FF4FEA27
:1034B0004B25A8E7A269B24298D0A079400608D56A
:1034C000D9F8000200F021F870B9A07900F0BF002F
:1034D000A0710123D9F8000290F801023246494652
:1034E00000F07DFA0028E7D00120E07100E0002024
:1034F000BDE8F28FA068C005C00DC0F5007170472F
:103500006169D9F80002FFF749B890F80102012378
:10351000494600F06BBA70B50446FFF72FFE00284D
:103520004AD104F50075A9798A0645D548060ED515
:10353000D4F80002AA6990F80102012300F042F8D1
:1035400008B1012070BDA87900F0BF00A871E96939
:1035500000F034F880BB2E6AF07A40F02000F07260
:10356000E8683077E8680004000E7077E868000CBF
:10357000B077E868000EF07730462969FFF772FAF5
:1035800000F050FAB0750104090EF175010C3176A6
:10359000000E70760020B074F074A87900F0DF009F
:1035A000A8710120D4F8001281F80402D4F80002B6
:1035B000BDE87040FEF79ABF70BD3169D4F80002D3
:1035C000FEF77BBF214600F011BA10B50446FFF7A5
:1035D000A2FF58B92046FFF7D1FD38B9D4F8280228
:1035E000FEF718FF10B90021C4F8001210BD2DE934
:1035F000F84F80460F46FFF7C1FD5FEA00093DD155
:1036000008F50076F079002840F0E780746A002C15
:1036100066D017F1010F32D154F8040B0090022547
:10362000306910B307464FF0000AAD1C83460146CF
:10363000D8F800020AF1010AFEF7BFFF0228C0F025
:10364000A58010F1010F75D00BF101018842EDD07A
:103650000099A94224BF44F804AB44F8047BD8F88D
:103660000012D1F814128842DCD3706A0560009809
:10367000A84232BF4FF0110900202060ACE0F06892
:10368000B84298BF0746B760002FF7D07F1E394673
:103690004046FFF7F2F87061014600F0A0F8040020
:1036A00074D0D8F8000290F80212491E01EA57219E
:1036B0000C19B168C9051CBFB26994420FD0B17929
:1036C000490607D500F08FF8002878D1B07900F0CE
:1036D000BF00B07100F08DF8002870D1B4617BE0BC
:1036E000F068B84203D2B179890758BF0746B1687C
:1036F0000020B060002F4DD0D8F8000290F80222D0
:10370000550271B1491E7B1EB1FBF5F2B3FBF5F317
:10371000934206D3681E21EA0000B0603F1A716927
:103720000BE0316941B9FFF751F8014601292DD06D
:1037300011F1010F43D03161716199B92AE0FEF7AF
:103740003CFF014611F1010F39D002291ED3D8F8F0
:103750000002D0F81402814218D271617F1BB06858
:103760002818B060BD4209D2B279D8F80002920799
:10377000E5D5FFF72BF80100E4D12F46B0683818E3
:10378000B060F80506D000F02AF808B9022017E06A
:1037900000EB5724B068C0051CBFB269944212D038
:1037A000B079400608D5D8F8000200F01CF830B90E
:1037B000B07900F0BF00B07100F01BF810B101202B
:1037C000F0710AE0B461B068F168814204D2F0603F
:1037D000B07940F02000B0714846BDE8F28FD8F8CB
:1037E0000002FEF7DBBE90F801020123414600F023
:1037F000FDB80123D8F8000290F8010222464146A4
:1038000000F0EDB872B585B0040008BF092039D0CA
:10381000002205A900A8FFF733FB06002DD1009870
:10382000C4F8000204F5007501A8A86120460599B6
:10383000FFF77AFA06001CD1696931B1C87AC0066F
:1038400019D50098FFF7FEF8A8600098B0F80602B6
:10385000A88000F019F806000BD1A86808B9E86143
:103860000FE000212046FEF796FDE86148B91226D8
:1038700004E0042E01D1052600E016B10020C4F8B2
:103880000002304606B070BD00212046FFF70CB89C
:103890003EB504460D46FFF771FCE0B915B9FFF7D8
:1038A000F3FF3EBD00A8C4F8180200212046FFF730
:1038B000E2F8042803D10020C4F8100200E050B957
:1038C00029462046FFF73BF9FFF77FFA042804BF9B
:1038D0000020C4F810023EBD8CA983A8FFF7D0BA1F
:1038E0004FF4007200212046FEF71CBD83AD00A8F6
:1038F000A86103A88C99FFF717BA552084F8FE0138
:103900000123AA2084F8FF0170474120E070722053
:1039100084F8E40184F8E501412084F8E60161209F
:1039200084F8E701704750F8041B61B150F8042B8C
:10393000D30744BFA9F101039A18002342F8043BBE
:10394000091FFAD1EFE7704762F30F2262F31F42BB
:10395000401810F0030308D0C91A1FD3DB0748BF73
:1039600000F8012D28BF20F8022D130030B41446B2
:103970001546103928BF20E93C00FAD8490728BF6E
:1039800020E90C0048BF40F8042D890028BF20F82A
:10399000022D48BF00F8012D30BC7047C91818BF70
:1039A00000F8012DCB0728BF00F8012D70470268F1
:1039B000531C0360117070470146194A8B5C00204C
:1039C00033B90120885402EB810040680068004749
:1039D0007047134901EB800040684068004710B50C
:1039E00000F00BF89B68BDE81040184710B500F0D8
:1039F00004F8DB68BDE81040184704460846114645
:103A00001A46074B03EB84035B687047034608467E
:103A10001146034A02EB8302526812691047000004
:103A2000783800200020704700F5E070026891426D
:103A300003D343689A18914202D380680028F5D1D5
:103A40007047DFF82407016891B9DFF820274FF4A9
:103A5000803181604FF4805141604FF0FF31C1608F
:103A6000016104214161C2F8BC11DFF80417016053
:103A70000120704701F1080313F0070305D001F19D
:103A80000803C3F1080303F007035918D21A816130
:103A9000C26042F001034B60511828234B60DFF8ED
:103AA000C8160969C16170472DE9F84F044601F154
:103AB000080010F0070005D001F10800C0F108006F
:103AC00000F0070000EB010B02F1080010F0070006
:103AD00005D002F10800C0F1080000F007008618C8
:103AE000A6EB0B00A0EB030803EB0B0743F003006E
:103AF000CBF80400B74228BF01F0F6F93079C007CF
:103B000058BF01F0F1F9B8F1100F38BF01F0ECF92E
:103B1000A069864207D1E0684044E060A76140F0B8
:103B2000010078605AE16069864208D1A06840448B
:103B3000A060676140F001017960C0514EE170689A
:103B400000F00301012940F0AD80C0084FEAC00930
:103B500020283BD2D6F808A0F5680090AE4208BFF6
:103B600001F0C2F9564508BF01F0BEF9706800992E
:103B7000C008C000B0EBC10F18BF01F0B5F9009844
:103B800004EBC00000F128018A4508D021698A456C
:103B9000C0F08480DAF80C10B14240F07F805545C7
:103BA00006D1009A2068012191408843206077E087
:103BB0002830854205D0206985426FD3A868B0427D
:103BC0006CD1CAF80C50C5F808A069E0F568D6F8C1
:103BD00018A0B5420CD0B0682169884223D3C168CF
:103BE000B14204BFA968B1421DD1C560A8601CE004
:103BF00006F11400056835B906F110000568A5B195
:103C000001E00846056805F114010A68002A02BFB0
:103C100005F110010A68002AF3D12169884202D314
:103C20000021016001E001F05FF9BAF1000F37D027
:103C3000F06904EB800000F5987001688E4209D1AC
:103C40000560280014D1F269606801219140884321
:103C5000606025E02069824508D3DAF81000B042A0
:103C600014BFCAF81450CAF8105001E001F03CF932
:103C7000B5B12069854211D3C5F818A0316929B1C1
:103C8000814226BF29618D6101F02EF9706938B13A
:103C90002169884202D36861856101E001F024F95D
:103CA0004E44C84470684008400070604FEAD80530
:103CB00048F00100786048F80780202D21D204EBFD
:103CC000C50000F12806B146B8F1100F38BF01F069
:103CD0000BF9206820FA05F1C90704D40121A94095
:103CE0000843206006E0B068216988422CBF814605
:103CF00001F0FAF8B760C9F80C70C7F80890FE60D8
:103D00006CE05FEA182008BF002123D0B0F5803FA7
:103D100028BF1F211ED2A0F58071090C01F00801F7
:103D20008840A0F58052120C02F004029040A0F5E9
:103D300080431B0CC1F10E0103F00203891AC91A5A
:103D4000984001EBD030C11D28FA01F101F00101CA
:103D500001EB4001F96100227A613A6104EB8100D4
:103D6000626822FA01F300F59870DB0706D401239C
:103D700003FA01F11143616007601CE01F2900682C
:103D80000EBF00214908C1F1190108FA01F100E054
:103D900010464268D208D200424510D0CA0F00EB4C
:103DA000820202F1100349001A68002AF0D1216949
:103DB0008B4211D31F60B861FF60BF600EE02269C3
:103DC0008168904228BF914206D3CF608760B96076
:103DD000F8600020B86101E001F086F80BF10800FE
:103DE000BDE8F28F2DE9F04F0546DFF87C0300684F
:103DF00083B0884608B9FFF724FEDFF86C038068BB
:103E000000EB08012F31401E21EA0000804580F0C0
:103E1000A881D5F8B81141B1D5F8B02180188242F7
:103E200080F09F818142C0F09C8101F061F8002800
:103E30001EBF0446076814F1010F00F09281D5F807
:103E4000B0013818C5F8B001D5F8B411814238BFB7
:103E50000146C5F8B411A86988BB286908B1844235
:103E600000D22C61C5F8C041C5F8C4710020C5F866
:103E7000CC0105F12801BC48006868624FF0FF30B2
:103E800028620020C960896001F10802801CD260AC
:103E9000103192602028F5D3B448854203D1A7F1B0
:103EA0002802214625E055F8040CC00805EBC000A7
:103EB000A0F108013819401AA0F1280219E005F50F
:103EC000E071084600E08068B8B142680368D21823
:103ED0009442F8D1027B12070FD4AA699A420CD3FC
:103EE000466833449A4208D2B9194160E868A96922
:103EF0003A182846FFF7BEFD1EE12869844238BF04
:103F00002C610846391900E0806880B102688A4255
:103F1000FAD1017B09070AD4046043464168791845
:103F200041602846214603B0BDE8F04FBCE5AE69CC
:103F300031462846FFF778FD41680068081801906F
:103F40002F3800F1080111F0070105D000F1080138
:103F5000C1F1080101F00701081806F110018842BB
:103F600034BF00960090009800F1080900F1180A8B
:103F700004F108014FF0000BA7F1280011F0070130
:103F800005D004F10801C1F1080101F007010A1987
:103F9000401AAA61E86040F00101516080182821B0
:103FA000416071480069E86119F0070018BF00F02E
:103FB0009BFF00991B20486005F5E070B0E80E10EB
:103FC000A9E80E10C5F8C041C5F8C471A9F11001E7
:103FD000C5F8CCB1C5F8C811019800E08A4607229F
:103FE000CAF804200AF104010A1D0BF1010B8242F8
:103FF000F4D3BBF1020FB8BF00F076FF0098B042D7
:1040000000F09A80801B81194FEAD0094A68520853
:1040100052004A6040F0010171608051B9F1200FF7
:104020001FD205EBC90101F128042746102838BF2B
:1040300000F05AFF286820FA09F1C90705D40121C8
:1040400001FA09F10843286006E0A068296988425E
:104050002CBF074600F048FFA660FE60B760F46022
:104060006AE0010A08BF002223D0B1F5803F28BFD3
:104070001F221ED2A1F58072120C02F0080291409C
:10408000A1F580531B0C03F004039940A1F5804473
:10409000240CC2F10E0204F00204D21A121BA14039
:1040A00002EBD131CA1D20FA02F202F0010202EB4A
:1040B0004102F26100237361336105EB82016B6899
:1040C00023FA02F401F59871E40705D40120904029
:1040D000184368600E601CE01F2A09680EBF0022AA
:1040E0005208C2F1190200FA02F200E019464B68C8
:1040F000DB08DB00834210D0D30F01EB830303F115
:10410000100452002368002BF0D12869844211D397
:104110002660B161F660B6600EE02A698868914257
:1041200028BF904206D3C6608E60B060F160002068
:10413000B06101E000F0D8FEE868804511D2A0EB44
:104140000800E86040F00100A96908EB0102AA61DB
:10415000506048F00300486003B001F10800BDE87A
:10416000F08F002000F030BC60380020BC3500200B
:104170006859883C2DE9F84F044688460026C8F166
:10418000000B5FEA182008BF002123D0B0F5803F64
:1041900028BF1F211ED2A0F58071090C01F0080173
:1041A0008840A0F58052120C02F004029040A0F565
:1041B00080431B0CC1F10E0103F00203891AC91AD6
:1041C000984001EBD030C11D28FA01F101F0010146
:1041D00001EB400104EB8100D0F8300130B31F291E
:1041E0000EBF00224A08C2F1190208FA02F20023A7
:1041F00000E052004568ED08ED00A5EB08055D45BF
:1042000003D206465FEA050B0CD045694FEAD27E21
:1042100000EB8E00002D00691CBF85422B46002854
:10422000E7D1184600283AD1002E3AD10120884023
:104230004000414208436168084000F05F8141420C
:104240000840411E080B00F0100021FA00F251094D
:1042500001F00801CA40930803F00403DA4055084E
:1042600005F002050818EA401818C2F3400E284469
:10427000704422FA0EF1081804EB8000D0F83001E7
:104280000DE008464168C908C900A1EB080159457D
:104290003CBF8B46064601690029F2D140690028DF
:1042A000F0D1002E00F02A81A068A0EB0800834521
:1042B00080F0248120698642C0F01E817068C008A9
:1042C00008EB0B09C00008EB0605484518BF00F0D5
:1042D0000BFEAE4280F01081F768D6F818A0B74206
:1042E0000CD0B0682169884223D3C168B14204BFB1
:1042F000B968B1421DD1C760B8601CE006F1140076
:10430000076837B906F110000768A7B101E0084651
:10431000076807F114010A68002A02BF07F11001BB
:104320000A68002AF3D12169884202D30021016082
:1043300001E000F0D9FDBAF1000F38D0F06904EBCC
:10434000800000F5987001688E4209D1076038003E
:1043500014D1F2696068012191408843606026E0D1
:104360002069824508D3DAF81000B04214BFCAF8B9
:104370001470CAF8107001E000F0B6FDBFB12069FA
:10438000874212D3C7F818A0306930B1216988423A
:1043900026BF3861876100F0A7FD706938B12169D7
:1043A000884202D37861876101E000F09DFDBBF196
:1043B000100F09D249F00300706009EB0600416854
:1043C00041F00101416096E048F0030070604BF05D
:1043D000010068604BF805B04FEADB0020281DD2D1
:1043E00004EBC00101F12807216821FA00F2BB4665
:1043F000D20705D4012202FA00F00843206006E04B
:10440000B868216988422CBF834600F06DFDBD600D
:10441000CBF80C50C5F808B0EF606CE05FEA1B20E9
:1044200008BF002123D0B0F5803F28BF1F211ED236
:10443000A0F58071090C01F008018840A0F58052B8
:10444000120C02F004029040A0F580431B0CC1F155
:104450000E0103F00203891AC91A984001EBD0300B
:10446000C11D2BFA01F101F0010101EB4001E961ED
:1044700000226A612A6104EB8100626822FA01F37A
:1044800000F59870DB0706D4012303FA01F111430C
:10449000616005601CE01F2900680EBF002149080B
:1044A000C1F119010BFA01F100E010464268D2088F
:1044B000D2005A4510D0CA0F00EB820202F110035D
:1044C00049001A68002AF0D121698B4211D31D607E
:1044D000A861ED60AD600EE022698168904228BF5E
:1044E000914206D3CD608560A960E8600020A86194
:1044F00001E000F0F9FC07E100F0F6FC01E12DE934
:10450000F84F04468846606841420840411E080B47
:1045100000F01000C1404A0902F00802D1408B08A7
:1045200003F00403D9404D0805F002051018E940D6
:104530001818C1F3400628443018F140081804EB5D
:104540008000D0F830014168C908C9000646A1EBD7
:10455000080A09E008464168C908C900A1EB08013A
:1045600051453CBF8A46064601690029F2D140699F
:104570000028F0D120698642C0F0C1807068C00870
:1045800008EB0A09C00008EB060B484518BF00F00D
:10459000ABFC5E4580F0B380F768B569B7420CD0DC
:1045A000B0682169884223D3C168B14204BFB968A9
:1045B000B1421DD1C760B8601CE006F11400076865
:1045C00037B906F110000768A7B101E0084607688F
:1045D00007F114010A68002A02BF07F110010A68F6
:1045E000002AF3D12169884202D30021016001E051
:1045F00000F07AFC002D34D0F06904EB800000F567
:10460000987001688E4209D10760380011D1F269B3
:104610006068012191408843606022E02069854202
:1046200005D32869B04214BF6F612F6101E000F02B
:104630005BFCB7B12069874211D3BD61306930B1ED
:104640002169884226BF3861876100F04DFC70699E
:1046500038B12169884202D37861876101E000F0B6
:1046600043FCBAF1100F09D249F00300706009EB66
:104670000600416841F0010141603FE048F003005D
:1046800070604AF00100CBF804004AF80BA0D4F89F
:1046900008804FEAD805202D28BF00F025FCB8F18E
:1046A000000F27D0D4F81490009504EBC50000F15A
:1046B00028052F46B8F1100F38BF00F015FC206810
:1046C000009920FA01F1C90705D4009A012191400F
:1046D0000843206006E0A868216988422CBF07468D
:1046E00000F002FCC5F80890C7F80C90C9F80870F3
:1046F000C9F80C50C4F808A0C4F814B004E000F0E5
:10470000F3FB0020BDE8F28F06F10800BDE8F28F50
:104710002DE9F04F83B00546C046C046DFF8C047DC
:10472000F52D80F006810B2D31BF102705F10B0010
:10473000C008C7002068FE08F04010F0030F42D008
:10474000C04300F00100861904EBC60000F1280800
:10475000F700D8F808506868C008C000B84218BF11
:1047600000F0C2FBD5F80890454508BF00F0BCFB3F
:104770004D4508BF00F0B8FB6868C008C000B842EB
:1047800018BF00F0B1FBC84505D120680121B14038
:10479000884320600DE02069814508D3D9F80C00DA
:1047A000A84204D1C8F80890C9F80C8001E000F0D4
:1047B0009BFB47F00300686078190835416841F0B9
:1047C00001014160FDE0A168B94280F0C480002889
:1047D00000F0A680012505FA06F149004A42B040E2
:1047E0001143084041420840411E080B00F01000F0
:1047F000C1404A0902F00802D1408B0803F00403CB
:10480000D9404E0806F002061018F1401818C1F3FE
:1048100040083018404421FA08F101EB000804EB8D
:10482000C80000F128094FEAC80AD9F80860706882
:10483000C008C000504518BF00F056FBD6F808B0BD
:104840004E4508BF00F050FB5E4508BF00F04CFB32
:104850007068C008C000504518BF00F045FBD9453E
:1048600005D1206805FA08F1884320600DE0206931
:10487000834508D3DBF80C00B04204D1C9F808B076
:10488000CBF80C9001E000F02FFB47F00300AAEBFF
:1048900007087060BF1948F00100786048F8078089
:1048A000D4F808904FEAD90ABAF1200F28BF00F0D7
:1048B0001BFBB9F1000F2DD060690090CDF804A06A
:1048C00004EBCA0000F1280AD346B9F1100F38BF33
:1048D00000F00AFB2068019920FA01F1C90705D40C
:1048E000019905FA01F10843206007E0DAF80800B1
:1048F000216988422CBF834600F0F6FA0098CAF876
:1049000008000098CBF80C000098C0F808B0009898
:10491000C0F80CA0C4F80880676106F1080550E0F3
:104920006068C0B339462046FFF7E9FD050012D0A4
:1049300047E015F1400F28BF4FF0FF370BD205F1CC
:104940000B00C008C700606828B139462046FFF751
:1049500011FC050035D1A168B9421CD3CA1B60699E
:10496000102A0AD339186161A26042F001034B603A
:10497000525047F0030141600AE00022A2606261E8
:1049800041F00302426009184A6842F001024A609D
:1049900000F1080515E0E06887420DD2C01BA1694F
:1049A000E0607A18A26140F00100506001F1080552
:1049B00047F00300486004E039462046FFF712FA4A
:1049C0000546C046C046284603B0BDE8F08F00B992
:1049D00070472DE9F047A0F10804C046C046DFF853
:1049E000005528698442C0F07582616801F00302B5
:1049F000012A00F06F82CA084FEAC20808EB0409D6
:104A0000CA0737D4226811F0030F00F065825142C3
:104A10000C1990448442C0F05D8269698C4200F0B8
:104A2000D880D608202E70D2D4F80CA0A7685445A0
:104A300008BF00F059FABC4208BF00F055FA6068A0
:104A4000C008C000B0EBC60F18BF00F04DFA05EB70
:104A5000C60000F128018F4205D029698F4251D349
:104A6000F968A1424ED1BA453DD128680121B14033
:104A7000884328604C4580F02D82D9F80400C10796
:104A800040F12882810700F17A81A969894540F0C7
:104A9000B580E868AC614044E86040F001016160C5
:104AA00069698C4202D100216961A960E96981428A
:104AB00080F01282DFF82C04006808B9FEF7C1FF0D
:104AC000A969002900F00882E868292824BF28463F
:104AD000FEF7AAFFE869E968884280F0FD814FF09F
:104AE000FF30E861F8E12830824506D02869824528
:104AF00008D3DAF80800A04204D1C7F80CA0CAF81D
:104B00000870B7E700F0F0F9B4E7E768A669A742D4
:104B10000BD0A168814222D3C868A04204BFB86804
:104B2000A0421CD1CF60B9601BE004F114010F68F2
:104B300037B904F110010F689FB101E011460F6809
:104B400007F114021368002B02BF07F1100213686B
:104B5000002BF3D1814202D30020086001E000F075
:104B6000C3F9002E86D0E06905EB800000F598704F
:104B700001688C4209D10760380011D1E269686888
:104B8000012191408843686074E72869864205D313
:104B90003069A04214BF7761376101E000F0A4F9E9
:104BA000002F3FF467AF28698742ABD3BE6121690C
:104BB00029B1814226BF39618F6100F095F96069A2
:104BC00000283FF457AF296988429BD378618761F9
:104BD00050E799F8040000F0030003287FF44AAF7F
:104BE000C5F80880D9F8040040084000C9F804005E
:104BF00048F00100606048F804806DE1696989450A
:104C000008D1A8686C614044A86040F0010161606F
:104C1000005161E1C008C0004FEAD00A8044BAF1F7
:104C2000200F36D2D9F80C70D9F80860B94508BF02
:104C300000F05AF9B14508BF00F056F9D9F8040060
:104C4000C008C000B0EBCA0F18BF00F04DF905EB6B
:104C5000CA0000F128018E4206D029698E42C0F0B8
:104C60008180F16849457DD1B74206D1286801218C
:104C700001FA0AF18843286076E02830874205D09F
:104C8000286987426ED3B86848456BD1F760BE602B
:104C90006AE0D9F80C70D9F818604F450DD0D9F8F2
:104CA00008002969884223D3C168494504BFB9680F
:104CB00049451DD1C760B8601CE009F114000768C0
:104CC00037B909F110000768A7B101E00846076885
:104CD00007F114010A68002A02BF07F110010A68EF
:104CE000002AF3D12969884202D30021016001E042
:104CF00000F0FAF8002E37D0D9F81C0005EB800040
:104D000000F59870016889450AD10760380012D112
:104D1000D9F81C206868012191408843686023E02D
:104D20002869864205D33069484514BF77613761E9
:104D300001E000F0D9F8BFB12869874212D3BE6103
:104D4000D9F8101029B1814226BF39618F6100F076
:104D5000CBF8D9F8140038B12969884202D37861B8
:104D6000876101E000F0C0F848F00100606048F899
:104D70000480686984420BD1C5F80880ACE0400823
:104D80004000C9F8040048F00100606048F8048061
:104D90004FEAD807202F22D205EBC70000F12809DF
:104DA0004E46B8F1100F38BF00F09EF8286820FA80
:104DB00007F1C90704D40121B9400843286007E07E
:104DC000D9F80800296988422CBF064600F08CF803
:104DD000C9F80840F460A660C4F80C907CE05FEA73
:104DE000182008BF002123D0B0F5803F28BF1F2125
:104DF0001ED2A0F58071090C01F008018840A0F5D1
:104E00008052120C02F004029040A0F580431B0C6B
:104E1000C1F10E0103F00203891AC91A984001EB8F
:104E2000D030C11D28FA01F101F0010101EB400170
:104E3000E16100226261226105EB81006A6822FA69
:104E400001F300F59870DB0706D4012303FA01F1A2
:104E50001143696004601CE01F2900680EBF002137
:104E60004908C1F1190108FA01F100E01046426851
:104E7000D208D200424510D0CA0F00EB820202F1E4
:104E8000100349001A68002AF0D129698B4211D316
:104E90001C60A061E460A4600EE02A698168904211
:104EA00028BF914206D3CC608460A160E0600020FE
:104EB000A06101E000F018F8286A401E28620BD1BA
:104EC000D5F8C80100E080680028FCD14FF0FF3021
:104ED000286201E000F008F8C046C046BDE8F0874F
:104EE000BC35002060380020012000F017B8000019
:104EF0000749086808B1002070470648C008C0008C
:104F000008600549C908C900091A0160704700BF57
:104F100090380020FF400020F842002080B5C046B5
:104F2000C046024A11001820ABBEFBE72600020073
:104F30002DE9F04F80460FF2447095B014461D469F
:104F4000D0E90023CDE9132303AE00200391B06123
:104F50000DF1340A00E04C440020ADF8020013AB20
:104F60004FF0FF3221460DF1020000F093FB814625
:104F7000B9F1010F08DA2078B0F1010969EB0909EC
:104F80006FEA09004FEAD079BDF8020025280CBF6E
:104F9000A9F1010BCB46BBF1010F0EDB274617F839
:104FA000011B0398C0470390002800F0D981B06925
:104FB000401CB061BBF1010BF1D1BDF80200252806
:104FC00004D10020F0603061706105E00028C2D19A
:104FD000B069C7E140F0010014F8011F2029F9D0A1
:104FE00023290DD02B2904D02D2906D030290AD011
:104FF0000CE040F0020080B2EEE740F00400FAE777
:1050000040F00800F7E740F01000F4E72A290DD13E
:1050100029680A1D2A6009683162002904D54942BD
:1050200040F00400316280B2641C13E00021316260
:105030000BE0316A6FF00043994205D001EB810328
:1050400002EB430130393162641C2278A2F1300155
:105050000A29EED321782E2903D04FF0FF31F161D8
:105060001EE014F8011F2A2906D129680A1D2A60AA
:10507000641C0968F16113E00021F1610BE0F16942
:105080006FF00043994205D001EB810302EB43012D
:105090003039F161641C2278A2F130010A29EED383
:1050A000B0840FF2E050217800F004FB08B114F84E
:1050B000010B8DF832009DF83200682804BF20787B
:1050C000682803D162208DF83200641C0DA8B060FE
:1050D0002278252A13D0582A3CD0632A00F0AD80CC
:1050E000642A18BF692A70D06F2A33D0702A28D05A
:1050F000732A09D0752A18BF782A2BD0BFE0F06830
:10510000411CF1602521A3E09DF832006C2828683D
:1051100013D0011D29600068F2697060002A02D571
:1051200000F0D4FA07E0002100F0ECFA00281ABFE2
:105130007168401AF0693061ADE0011D29600268B4
:1051400096E02868011D29607821006802900DA86A
:1051500070606EE09DF832306C2B08BF286811D06B
:10516000712B08BF286802D028686A2B0AD1C01D9D
:1051700020F007002860014601F108002860D1E90D
:10518000000102E0011D296000680290682B02D135
:1051900002A8008803E0622B02D102A800780290E6
:1051A00096F8240000073FD5029800283CD042F032
:1051B0002000782838D1F068302100F80A10401C0F
:1051C000411CF16000F80A202EE09DF832006228B0
:1051D00002D0682806D00BE02868011D296090F9EC
:1051E000000009E02868011D2960B0F9000003E013
:1051F0002868011D296000680290002804D5F06825
:10520000411CF1602D210DE0B08C810704D5F068C0
:10521000411CF1602B2105E0C00705D5F068411C59
:10522000F160202100F80A10F0680DA940187060A4
:10523000114602A800F0A3F92DE09DF832006C2879
:1052400009D0F068411CF16029680A1D2A600968CC
:1052500000F80A101FE02868011D296001AA0068F3
:10526000ADF804000020ADF806004FF0FF30F0610B
:1052700002A9404600F079F800280CD570E0F068EB
:10528000411CF160252100F80A1022B1F068411C90
:10529000F16000F80A20306AF168401A7169401A1A
:1052A0003169A0EB010996F82400641C40070FD473
:1052B00020208DF80000002708E0012300AA02A9A1
:1052C000404600F0C3F900284AD17F1C4F45F4DB6B
:1052D000F7680DF1340B0AE01BF8011B0398C04777
:1052E000039000283CD0B069401CB0617F1E002FA5
:1052F000F2D130208DF800004FF0000B776908E004
:10530000012300AA02A9404600F0A0F940BB0BF11E
:10531000010BBB45F4DB3769D6F804B009E01BF894
:10532000011B0398C0470390D0B1B069401CB06125
:105330007F1E002FF3D196F8240040077FF50CAEB6
:1053400020208DF8000000E07F1C4F45BFF604AE22
:10535000012300AA02A9404600F078F90028F3D002
:105360004FF0FF3015B0BDE8F08F2DE9F44F0E4639
:1053700094B0346A8146002C48BF6FF0004400F0BE
:10538000EDF9716A401801900FF20030D0E9002366
:10539000CDE9022396F82800400702D4019841285D
:1053A00005D240200DF1100A0190002507E0FFF71B
:1053B000AFF95FEA000AF8D1D2E7A4EB0804012CA8
:1053C000C0F285801498018802AA0DF1010000F056
:1053D000CAF95FEA000800F188801498008818B9BB
:1053E000B8F1010800F18180444570DB3069019912
:1053F00008EB0002914258D275624042B169401AEE
:105400007169451A96F8280040070FD420208DF8BE
:105410000000002708E0012300AA3146484600F0BA
:1054200015F9002861D17F1CAF42F4DB3369524685
:105430003146484600F00AF9002856D130208DF850
:1054400000004FF0000BB76909E0012300AA3146C4
:10545000484600F0FBF8002847D10BF1010BBB4593
:10546000F3DB7769D6F808B009E01BF8011B706818
:10547000C8477060C8B3F069401CF0617F1E002F00
:10548000F3D196F8280040070DD520208DF80000B4
:1054900007E0012300AA3146484600F0D7F820BBB8
:1054A0007F1CAF42F5DB00253561424630690DF1C6
:1054B0000101504400F064F93069404430611498AF
:1054C000801C1490801E008800287FF476AF706ADC
:1054D0003169401AB169401A7169A0EB010896F868
:1054E0002800400710D400240CE04FF0FF353EE0C8
:1054F00070682021C84770600028F6D0F069401C11
:10550000F061641C4445F3DB33695246314648463A
:1055100000F09CF80028E8D1B469002709E0706821
:105520003021C84770600028DFD0F069401CF0616E
:105530007F1CA742F3DB7369B2683146484600F02E
:1055400085F80028D1D196F8280040070DD5002411
:1055500009E070682021C84770600028C5D0F06954
:10556000401CF061641C4445F3DB3561756204A89E
:1055700082451CBF5046FFF72AFA2846F2E6F0B4EF
:10558000C2686F2908BF082405D041F02003782B9A
:1055900014BF0A241024066818233746642918BF4C
:1055A000692902D1002E48BF7F425FB9056A4DB913
:1055B000082C27D190F82810090723D5302117236C
:1055C000D1751FE0B7FBF4F604FB167730375D1E8C
:1055D000FFB22B463A2FA4BFA1F1510C6744AF5440
:1055E000370003D085689E18B542EBD3082C09D14B
:1055F00090F82810090705D5995C302902D05B1E68
:1056000030219954C3F1180141619A188260026AED
:10561000914208DA511A81614FF6EF72018D114003
:105620000185F0BC7047002A0ED590F8282002F0C2
:105630001402102A08D1426A0369D21A8369D21A65
:10564000531A012BA8BF8361F0BC7047F8B504461C
:105650000D4616461F46002004E0E869401CE8613C
:105660007F1E002047B116F8011B6868A0476860DC
:105670000028F2D14FF0FF30F2BD00000000000022
:1056800000000000686C747A4C000000000000000C
:1056900000000000F8B504460D4616461F4600F00F
:1056A000ABF83B4632462946204601B0BDE8F04003
:1056B00000F0B9B80278C9B28A421AB11CBF10F81A
:1056C000012FF9E718BF00207047000000F1010327
:1056D000810704D010F8011B89B18107FAD1026853
:1056E000B2F10131914311F0803F04BF50F8042F13
:1056F000F6E710F8011B11B110F8011BFBE7C01A07
:1057000070470000C9B2830706D0521E22D310F89A
:10571000013B9942F7D11FE0083A13D302F104028A
:1057200041EA012141EA014150F8043B121F21BF27
:105730004B40A3F1013C2CEA030C1CF0803FF3D05A
:10574000C9B2001F083210F8013B521E28BF91EA6F
:10575000030FF8D818BF0120401E704780B500F035
:105760004BF8012002BD70B504460D46164600F008
:1057700043F8324629462046BDE8704000F046B85E
:1057800062B38B0708D0521E11F8013B00F8013BB1
:1057900000F024808B07F6D1830740F0208000BF03
:1057A000103A07D330B4B1E83810103AA0E83810F6
:1057B000F9D230BC530724BFB1E80810A0E80810A4
:1057C00044BF51F8043B40F8043BD20724BF31F8F2
:1057D000022B20F8022B44BF0B7803707047083A65
:1057E00007D3B1E80810083A40F8043B40F804CB6E
:1057F000F7D25307E4E7000080B5DFF80C0000F0B3
:1058000035F8806902BD00000800002030B430B9CE
:105810000FF24800D0E90045C2E900451BE00170E5
:10582000012030BC704730B431B90FF23800D0E9F4
:105830000045C3E900450EE01AB930BC6FF0010025
:10584000704708B10A7802800978481E804130BC50
:10585000C043C00F7047002030BC704700000000FC
:105860000000000000000000000000007047000081
:1058700030B585B000F07EFB00F065F8DFF840043D
:10588000DFF84044016841F00801016001A90068A7
:1058900000F0080000900098012001900020029084
:1058A00002200390204600F0A1FBDFF81C540121E8
:1058B000204600F056FC30B300F07CFC002405F5D7
:1058C0002B71DFF8080400F0F7FDC8B900F010FEF6
:1058D00010B1042000F082F90022B9A105F17C008A
:1058E000FDF768FC18B1032000F078F908E00B2000
:1058F000FEF70EFF05EB8401641C4860192CF6D3FB
:1059000000F0F3F8FEE700F0DBFF0121002001F0DA
:1059100000F80020287007E0002000F0F0FF64206D
:1059200000F053FB287828B9002000F0E8FF4FF47E
:10593000FA70F5E70128EFD00228FBD1002000F033
:10594000DEFF3220ECE700B58FB00AA8142101F089
:1059500031FA00A8282101F02DFA02200090002041
:1059600001900390012004901020059000200290E7
:1059700002200790002008904FF46010099000A8C2
:1059800001F01CFA00B1FEE70F200A90022102206C
:105990000B9000200C900E904FF480600D900AA8A0
:1059A00001F0FAFB00B1FEE70FB000BD38B5C84802
:1059B00000F02BFC00F07FF90FF21831012000F00D
:1059C00097FC0FF22831022000F092FC1F2000F01B
:1059D00014FC0FF23031042000F08AFC0FF23C314D
:1059E00000F066F90FF24C3100F05FF9002000F092
:1059F00004FC0FF258310B2000F07AFC0FF26031FA
:105A00000C2000F075FC01F015F80228FBD101F024
:105A100011F80228FBD0002000F0EFFB0FF2543108
:105A2000042000F065FC0FF2603100F041F91F2006
:105A300000F0E3FB0FF2643100F037F90FF2703140
:105A4000092000F055FC0FF27C310B2000F050FCD7
:105A50000FF284310C2000F04BFC00F0EBFF044609
:105A6000022C18BF052CF8D14FF6FF7000F0D1FBC7
:105A7000954D052C24D100F01EF90FF27031032052
:105A800000F036FC0FF2783100F00BF91F2000F027
:105A9000B4FB0FF28031092000F02AFC0FF28831AC
:105AA0000A2000F025FC0FF294310B2000F020FCBE
:105AB0000FF29C310C2000F01BFC0220687031BDFD
:105AC000022C11D100F0F7F803200FF2983100F00A
:105AD0000FFC0FF2A43100F0E4F801206870C82038
